:100000000C9462000C9436010C9463010C948A00E9
:100010000C948A000C948A000C948A000C948A0038
:100020000C948A000C948A000C948A000C948A0028
:100030000C948A000C948A000C948A000C948A0018
:100040000C9490010C948A000C9481020C948A0008
:100050000C948A000C948A000C948A000C948A00F8
:100060000C948A000C948A000000000024002700F1
:100070002A0000000000250028002B0000000000DE
:1000800023002600290004040404040404040202DA
:100090000202020203030303030301020408102007
:1000A0004080010204081020010204081020000012
:1000B0000007000201000003040600000000000029
:1000C0000000CA0311241FBECFEFD8E0DEBFCDBFB2
:1000D00011E0A0E0B1E0ECE8F9E002C005900D927B
:1000E000AE30B107D9F711E0AEE0B1E001C01D922A
:1000F000AE3BB107E1F710E0C4ECD0E004C02297BA
:10010000FE010E94C004C23CD107C9F70E940C0145
:100110000C94C4040C940000809102010E943202ED
:1001200090931901809318010895809100010E9415
:1001300032029093130180931201809110019091EB
:100140001101892BF9F4809112019091130101970B
:10015000C9F48091180190911901892B51F4809173
:100160000E0190910F01019790930F0180930E0162
:10017000089580910E0190910F01019690930F01C7
:1001800080930E0108958091120190911301909334
:1001900011018093100120910E0130910F013093D5
:1001A00015012093140180911601909117012817D1
:1001B000390781F060910E0170910F018BEA91E097
:1001C0000E94B7038091140190911501909317013B
:1001D0008093160108958091000160E00E94120250
:1001E0008091020160E00E9412028BEA91E040E8F7
:1001F00055E260E070E00E94BE0281E065E970E0D7
:1002000041E050E00E94130180E06CE870E042E0C1
:1002100050E00E94130108950E94D8010E94EB0053
:100220000E94C300FDCF823000F5E82FF0E0EE0F12
:10023000FF1FE65EFE4F71836083882319F08130D3
:10024000A1F408C0809169008C7F842B80936900A1
:10025000E89A089580916900440F551F440F551F77
:10026000837F842B80936900E99A08951F920F92EF
:100270000FB60F9211242F933F934F935F936F9379
:100280007F938F939F93AF93BF93EF93FF9380914F
:100290001A0190911B01892B29F0E0911A01F0912C
:1002A0001B010995FF91EF91BF91AF919F918F91A4
:1002B0007F916F915F914F913F912F910F900FBE62
:1002C0000F901F9018951F920F920FB60F92112446
:1002D0002F933F934F935F936F937F938F939F934E
:1002E000AF93BF93EF93FF9380911C0190911D01F9
:1002F000892B29F0E0911C01F0911D010995FF91D6
:10030000EF91BF91AF919F918F917F916F915F918D
:100310004F913F912F910F900FBE0F901F90189506
:100320001F920F920FB60F9211242F933F938F932A
:100330009F93AF93BF938091220190912301A0914D
:100340002401B0912501309126010196A11DB11D16
:10035000232F2D5F2D3720F02D570196A11DB11DA4
:10036000209326018093220190932301A0932401DE
:10037000B093250180911E0190911F01A091200151
:10038000B09121010196A11DB11D80931E01909392
:100390001F01A0932001B0932101BF91AF919F91C4
:1003A0008F913F912F910F900FBE0F901F90189536
:1003B000789484B5826084BD84B5816084BD85B540
:1003C000826085BD85B5816085BDEEE6F0E0808107
:1003D00081608083E1E8F0E08081826080838081B9
:1003E00081608083E0E8F0E0808181608083E1EBE0
:1003F000F0E0808184608083E0EBF0E080818160C8
:100400008083EAE7F0E0808184608083808182607D
:100410008083808181608083808180688083109266
:10042000C1000895282F30E0C90186569F4FFC0176
:1004300094912A573F4FF9018491882391F0E82F36
:10044000F0E0EE0FFF1FE859FF4FA591B49166232E
:1004500029F48C91909589238C9308958C91892B04
:100460008C930895682F70E0CB0182559F4FFC015B
:100470002491CB0186569F4FFC0144916A577F4FD0
:10048000FB019491992319F420E030E038C0222335
:1004900031F1233021F4809180008F7705C0243022
:1004A00031F4809180008F7D8093800018C02130CE
:1004B00019F484B58F7704C0223021F484B58F7D80
:1004C00084BD0DC0263021F48091B0008F7705C027
:1004D000273029F48091B0008F7D8093B000892F60
:1004E00090E0880F991F84589F4FFC01A591B4910B
:1004F0008C9120E030E0842311F021E030E0C9014C
:1005000008951F920F920FB60F9211242F933F93CD
:100510004F935F936F937F938F939F93AF93BF930B
:10052000EF93FF934091C600E091A701F091A801DD
:10053000CF01019660E870E00E945A049C0180910E
:10054000A9019091AA012817390739F0E95DFE4FFA
:1005500040833093A8012093A701FF91EF91BF91B1
:10056000AF919F918F917F916F915F914F913F914B
:100570002F910F900FBE0F901F9018955F926F9262
:100580007F928F929F92AF92BF92CF92DF92EF9223
:10059000FF920F931F93CF93DF93EC013A014B012E
:1005A000413482E458078FE0680780E078070CF058
:1005B0007FC060E874E88EE190E0A40193010E949E
:1005C0008F042150304040405040CA01B90122E020
:1005D00030E040E050E00E948F0459016A01A6011A
:1005E0009501209530954095509594E0220F331F4A
:1005F000441F551F9A95D1F760E074E284EF90E0B4
:100600000E948F04CA01B9012FEF30E040E050E0B2
:100610000E943B04A40193010E948F04C9018150F0
:100620009F4F181619061CF4522E5A9403C05524D5
:100630005394521A60E079E08DE390E0A4019301B5
:100640000E948F042150304040405040CA01B901FF
:1006500022E030E040E050E00E948F042095309589
:100660004095509583E0220F331F441F551F8A95F4
:10067000D1F760E074E284EF90E00E948F04CA0139
:10068000B9012FEF30E040E050E00E943B04A401AC
:1006900093010E948F04C90181509F4F18161906BB
:1006A0001CF4822F815002C081E0821B851500F569
:1006B000E885F98581E090E00A8802C0880F991FDB
:1006C0000A94E2F7808360E079E08DE390E0A40192
:1006D00093010E948F042150304040405040CA0195
:1006E000B90122E030E040E050E00E948F0404C0F5
:1006F000E885F98510829501EC81FD813083EE81DA
:10070000FF812083EA85FB85208141E050E0CA011A
:100710000E8402C0880F991F0A94E2F7282B2083C9
:10072000EA85FB852081CA010F8402C0880F991FCA
:100730000A94E2F7282B2083EA85FB8580810888CC
:1007400002C0440F551F0A94E2F7842B8083DF9187
:10075000CF911F910F91FF90EF90DF90CF90BF90BE
:10076000AF909F908F907F906F905F900895FC0165
:10077000A085B18521898C9190E0022E02C09595CB
:1007800087950A94E2F780FFF6CF0484F585E02D83
:100790006083089588E091E09093AC018093AB0171
:1007A00087E291E09093AE018093AD0185EC90E0FB
:1007B0009093B0018093AF0184EC90E09093B201EC
:1007C0008093B10180EC90E09093B4018093B301E9
:1007D00081EC90E09093B6018093B50186EC90E0B7
:1007E0009093B8018093B70184E08093B90183E0CE
:1007F0008093BA0187E08093BB0185E08093BC01C0
:1008000081E08093BD0108950F931F93CF93DF93F1
:100810008C01EB0109C02196D801ED91FC9101906A
:10082000F081E02DC801099568816623A1F7DF9169
:10083000CF911F910F910895EF92FF920F931F9305
:10084000CF93DF938C017B01EA010CC0D7016D913E
:100850007D01D801ED91FC910190F081E02DC8015E
:1008600009952197209791F7DF91CF911F910F91D3
:10087000FF90EF900895629FD001739FF001829FD7
:10088000E00DF11D649FE00DF11D929FF00D839F1F
:10089000F00D749FF00D659FF00D9927729FB00DBC
:1008A000E11DF91F639FB00DE11DF91FBD01CF01CF
:1008B0001124089597FB092E07260AD077FD04D04E
:1008C00049D006D000201AF4709561957F4F0895A5
:1008D000F6F7909581959F4F0895A1E21A2EAA1BD5
:1008E000BB1BFD010DC0AA1FBB1FEE1FFF1FA217E0
:1008F000B307E407F50720F0A21BB30BE40BF50BDD
:10090000661F771F881F991F1A9469F76095709565
:10091000809590959B01AC01BD01CF01089597FB97
:10092000092E05260ED057FD04D0D7DF0AD0001CB3
:1009300038F450954095309521953F4F4F4F5F4F7C
:100940000895F6F790958095709561957F4F8F4F3C
:100950009F4F0895AA1BBB1B51E107C0AA1FBB1FD5
:10096000A617B70710F0A61BB70B881F991F5A953B
:10097000A9F780959095BC01CD010895EE0FFF1F5A
:0C0980000590F491E02D0994F894FFCF4D
:0E098C000200030000000000B70304041C0476
:00000001FF
